:020000040800F2
:1000000030C100204501000825040008270400082D
:100010002B0400082F04000833040008000000002F
:10002000000000000000000000000000370400088D
:1000300039040008000000005B2A00083B040008A7
:100040005D0400085F040008610400086304000800
:100050006504000867040008690400086B040008D0
:100060006D0400086F0400087104000873040008A0
:100070007504000877040008790400087B04000870
:100080007D0400087F040008810400085F01000867
:100090005F0100085F0100085F0100088B04000891
:1000A0008D0400088F0400089104000893040008E0
:1000B0009504000897040008990400089B040008B0
:1000C0009D0400089F040008A1040008A304000880
:1000D000A5040008A7040008A9040008AB04000850
:1000E000AD040008AF040008B1040008B304000820
:1000F000B5040008B7040008B9040008BB040008F0
:10010000BD040008BF040008C1040008C3040008BF
:10011000C5040008C7040008C9040008CB0400088F
:10012000CD040008CF040008D1040008D30400085F
:10013000DFF80CD012F0AEFF00480047C7030008FC
:1001400030C100200648804706480047FEE7FEE72A
:10015000FEE7FEE7FEE7FEE7FEE7FEE7FEE7FEE777
:10016000310200083101000800210020674A1268AE
:1001700042F48032654B1A6000BF644A126802F490
:100180000030491C10B9B1F5A06FF6D15F4A126872
:1001900012F4003F01D0012000E00020012842D1EC
:1001A0005B4A126842F01002594B1A601A461268F4
:1001B00022F003021A601A46126842F002021A6024
:1001C000524A5268514B5A601A4652685A601A464F
:1001D000526842F480625A601A46526822F47C12D5
:1001E0005A601A46526842F4E8125A601A46126877
:1001F00042F080721A6000BF444A126812F0007F19
:10020000FAD0424A526822F00302404B5A601A4622
:10021000526842F002025A6000BF3C4A526802F043
:100220000C02082AF9D1704710B5FFF79DFF10BDE9
:1002300010B53648006840F00100344908600846AF
:1002400040683449084031494860084600683249EE
:1002500008402E4908600846006820F480200860A5
:100260000846406820F4FE0048604FF41F00886094
:10027000FFF7DAFF4FF000602849086010BD10B5A5
:10028000002100200022214B5B6803F00C0121B10A
:10029000042906D0082928D107E0214B214C2360EE
:1002A00027E01F4B1F4C236023E0184B5B6803F4CF
:1002B0007010164B5B6803F48032022303EB90400E
:1002C00022B9194B4343174C23600DE00F4B5B6879
:1002D00013F4003F04D0144B4343124C236003E05B
:1002E0000F4B43430F4C236003E00D4B0D4C236039
:1002F00000BF00BF054B5B68C3F303130B4CE15C0D
:10030000084B1B68CB40074C236010BD0010024017
:10031000002002400000FFF8FFFFF6FE08ED00E0BD
:1003200000127A000000002000093D0004000020B7
:1003300008F05BF800BF06F0D2F90F2004F0F2FAE3
:1003400005F05CFCF7E710B5044607F076FE0020E8
:1003500006F07CF8FF2006F083F807F061FE0A2221
:10036000114620A005F078FA214806F0B5F864227D
:100370000A2120A005F070FA224806F0ADF882228A
:100380000A211CA005F068FA1F4806F0A5F8A02273
:100390000A2118A005F060FA12F062FB10BD10B53A
:1003A000044602F019FA0523184A0021184803F000
:1003B000E3FF1423174A0021174803F0DDFFFF2055
:1003C00004F07EF810BD10B502F0ACFA02F0BDFCEE
:1003D0000123124A0021124803F0CEFF02F01EFD55
:1003E000002010BD5543475549204F4B21000000C8
:1003F000DC3601087777772E6F70656E6D63752E2A
:10040000636F6D00F03D01088C560108785A00209A
:1004100047030008186A002031030008580C002028
:100420009F030008704700BFFEE700BFFEE700BF64
:10043000FEE700BFFEE77047704710B502F0ECFA28
:10044000044624480078401C22490870204602F0E7
:10045000E7FA02F0FBFC02F0A9FC10BD7047704700
:1004600070477047704770477047704770477047D4
:1004700070477047704770477047704770477047C4
:1004800070477047704770477047704770477047B4
:1004900070477047704770477047704770477047A4
:1004A0007047704770477047704770477047704794
:1004B0007047704770477047704770477047704784
:1004C0007047704770477047704770477047704774
:1004D0007047704734000020DB48006840F001009E
:1004E000D949086008464068D8490840D64948605C
:1004F00008460068D6490840D349086008460068A5
:1005000020F4802008600846406820F4FE0048601F
:100510004FF41F0088607047CB49096821F480318F
:10052000C94A11601146096821F480211160B0F5B3
:10053000803F03D0B0F5802F0ED106E0C249096894
:1005400041F48031C04A116007E0BF49096841F4B5
:10055000A021BD4A116000E000BF00BF704710B588
:1005600001460022002300204A11012A02D1B64C84
:10057000236806E0022A02D1B34C236A01E0B24CA0
:10058000636A01F01F02012494401C4201D0012043
:1005900000E0002010BD70B500240025002600BF3B
:1005A0003120FFF7DCFF0646641CB4F5A06F01D0D4
:1005B000002EF5D03120FFF7D2FF08B1012500E071
:1005C0000025284670BD014600209F4A106820F093
:1005D000F80040EAC100106070479E49086070470B
:1005E00002460020984B586820F47C1042EA010330
:1005F0001843954B58607047964908667047014606
:100600000020914A506820F0030008435060704772
:100610008D48406800F00C007047014600208A4A6F
:10062000506820F0F00008435060704701460020F9
:10063000854A506820F4E0600843506070470146E6
:100640000020814A506820F4605040EAC1005060A8
:10065000704729B17C4A527A02437B4B5A7206E0BA
:10066000794A527AC343DBB21A40774B5A727047C9
:1006700079490860704701460020734A506820F4A9
:1006800040400843506070470021744A11706E4A20
:1006900082F82010012802D0042808D103E00121AB
:1006A0006E4A117004E005216C4A117000E000BF31
:1006B00000BF70476A49086070476349096A01438F
:1006C000614A1162704767490860704730B5002180
:1006D0000022002400235C4D6D6805F00C0121B15F
:1006E000042905D0082923D105E05F4D056022E0EB
:1006F0005D4D05601FE0544D6D6805F47012524D5C
:100700006D6805F48034022505EB92421CB9574D03
:10071000554305600BE04C4D6D6815F4003F03D068
:10072000524D5543056002E04F4D5543056002E0D0
:100730004D4D056000BF00BF434D6D6805F0F001F1
:1007400009094B4D6B5C0568DD4045603E4D6D68A9
:1007500005F4E061090A464D6B5C4568DD40856043
:10076000394D6D6805F46051C90A414D6B5C4568AF
:10077000DD40C560344D6D6805F44041890B3D4D49
:100780006B5CC568B5FBF3F5056130BD29B12E4A38
:10079000526902432C4B5A6104E02B4A526982434E
:1007A000294B5A61704729B1274A92690243264B67
:1007B0009A6104E0244A92698243234B9A6170470C
:1007C00029B1214AD26902431F4BDA6104E01E4A73
:1007D000D26982431C4BDA61704729B11A4AD26848
:1007E0000243194BDA6004E0174AD2688243164B81
:1007F000DA60704729B1144A12690243124B1A6138
:1008000004E0114A126982430F4B1A6170471A497A
:10081000086070470F49C86470470B49C87170473A
:100820000948406A40F080700749486270470146B5
:100830000020054A92680A4201D0012000E0002011
:100840007047014988727047001002400000FFF8AD
:10085000FFFFF6FE00004242D80042422010024054
:10086000800442423C04424200127A0000093D00EA
:1008700014000020240000204004424210B5044629
:10088000CA48844208D101210420FFF7A6FF0021B5
:100890000420FFF7A2FF46E0C548844208D10121A9
:1008A0000820FFF79AFF00210820FFF796FF3AE0A3
:1008B000C048844208D101211020FFF78EFF00219B
:1008C0001020FFF78AFF2EE0BB48844208D10121A7
:1008D0002020FFF782FF00212020FFF77EFF22E08B
:1008E000B648844208D101214020FFF776FF00215D
:1008F0004020FFF772FF16E0B148844208D1012181
:100900008020FFF76AFF00218020FFF766FF0AE0E2
:10091000AC48844207D101218015FFF75EFF00211A
:10092000A015FFF75AFF10BD10B501210846FFF7CB
:1009300054FF00210120FFF750FF10BD2DE9F041C9
:10094000024600250026002000230024002791F8FD
:1009500003C00CF00F0591F803C01CF0100F03D07A
:1009600091F802C04CEA0505B1F800C01CF0FF0F79
:1009700031D0146800202BE04FF0010C0CFA00F38A
:10098000B1F800C00CEA03069E4220D183004FF06C
:100990000F0C0CFA03F7BC4305FA03FC4CEA040401
:1009A00091F803C0BCF1280F06D14FF0010C0CFAEE
:1009B00000FCC2F814C00AE091F803C0BCF1480F73
:1009C00005D14FF0010C0CFA00FCC2F810C0401C1D
:1009D0000828D1D31460B1F800C0BCF1FF0F34DD9A
:1009E000546800202EE000F1080C4FF0010808FACE
:1009F0000CF3B1F800C00CEA03069E4221D183003B
:100A00004FF00F0C0CFA03F7BC4305FA03FC4CEA59
:100A1000040491F803C0BCF1280F05D100F1080CC3
:100A200008FA0CF8C2F8148091F803C0BCF1480F22
:100A300007D100F1080C4FF0010808FA0CF8C2F8D1
:100A40001080401C0828CED35460BDE8F0814FF6DA
:100A5000FF710180022181700421C170704702463C
:100A6000002093680B4201D0012000E00020704775
:100A70000146886880B2704702460020D3680B4266
:100A800001D0012000E0002070470146C86880B214
:100A9000704701617047416170470AB1016100E030
:100AA00041617047C16070474FF480320A438261F0
:100AB0008161826182698269704702460020424BEF
:100AC00018684FF68073184040EA021008433E4B06
:100AD000186070473D49C8617047F0B50A46002369
:100AE00000240021002500F00046B6F1004F02D19D
:100AF000354EF16901E0344E7168C0F3034583B2AD
:100B000000F44016B6F5401F08D121F070612E4E5A
:100B1000766826F070662C4F7E6012E000F4801636
:100B2000B6F5801F06D1032606FA05F4A14341F06D
:100B3000706106E0460D360103FA06F6B14341F056
:100B4000706122B1460D360103FA06F6314300F01A
:100B50000046B6F1004F02D11B4EF16101E01A4E82
:100B60007160F0BD30B500228B071C0F0F2303FA14
:100B700004F2154B08338C1053F824309343124C75
:100B800008348D1044F8253023468C1053F8243057
:100B90008C07240F00FA04F423430B4C08348D1007
:100BA00044F8253030BD0A4908607047000801400C
:100BB000000C0140001001400014014000180140E9
:100BC000001C0140002001400000014000002042C4
:100BD000DC00204210B50446BF48844208D1012100
:100BE0008014FFF7FAFD0021A014FFF7F6FD16E0D0
:100BF000BA48844208D101210014FFF7FBFD00210F
:100C00002014FFF7F7FD0AE0B548844207D101211F
:100C1000C013FFF7EFFD0021E013FFF7EBFD10BD60
:100C200010B50022028802F441520B884C882343FD
:100C30008C882343CC8823430C8923434C8923434A
:100C40008C892343CC8923431A430280838B4FF240
:100C5000FF74234083830B8A038210BD2DE9F04F7C
:100C600085B005460C464FF0000902274FF00008FA
:100C70004FF0010B0026B246A88B4FF2400108400E
:100C8000A88302202884B5F81C90A068022801D10E
:100C900000BF36E0A08810B94FF0010B01E04FF023
:100CA000020B8E48854200D100E000BF6846FFF786
:100CB0000DFDDDF800A0E088B0F5007F0AD14FEA15
:100CC0001A2000EB80004000A168B0FBF1F0401D4D
:100CD00086B20BE04FEA4B10BAFBF0F000EB80005D
:100CE0004000A168B0FBF1F0401D86B20A20B6FBBF
:100CF000F0F606F00108A6EB0800C0F34F074FEA34
:100D00000828022F01DBFF2F02DD02274FF0000829
:100D1000E08840EA080038432884A088A189084375
:100D2000618808432188084340F4006040EA0909CB
:100D3000A5F81C9005B0BDE8F08F0021018041802E
:100D40008180C180018141818181C181072101822E
:100D500070470021018041808180C1800221816033
:100D600000218181704721B1028842F04002028057
:100D700004E002884FF6BF731A400280704721B129
:100D8000828B42F48062828304E0828B4FF6FF33D1
:100D90001A408283704770B5002400230C1101258E
:100DA000A540ABB21AB185881D43858004E08588D3
:100DB000DE43B6B23540858070BD10B51AB1838868
:100DC0000B43838004E08388CC43A4B22340838018
:100DD00010BD81817047014688897047A1F57E4228
:100DE000FF3A04D0028842F48072028004E0028854
:100DF0004FF6FF631A400280704721B1828842F0AB
:100E00000402828004E082884FF6FB731A408280DD
:100E1000704702884FF2FF731A40028002880A432B
:100E200002807047018841F480510180704721B1F0
:100E3000028842F40052028004E002884DF6FF73FB
:100E40001A400280704702460020012901D0108B11
:100E500000E0908A70470146088A7047B1F5804FDC
:100E600004D1028842F48042028004E002884BF6FA
:100E7000FF731A40028070470246002013890B421C
:100E800001D0012000E000207047CA430281704772
:100E9000F0B50246002000240023002501F00F07D2
:100EA0000126BE40B4B20B1101269E40B3B2968813
:100EB00006EA03051689264202D00DB1012000E0A2
:100EC0000020F0BD10B5002201F00F040123A34063
:100ED0009AB2D343038110BD003001400038004076
:100EE000003C004030B943F2DB014FF0204242F8B1
:100EF000201005E043F2D2014FF0204242F82010CA
:100F00006FF07042411C4FF0204343F821201146FE
:100F10001A4602EB8002C2F80411704710280AD169
:100F200018214FF020421166402151664FF0FC31EC
:100F30009166D16610E01821F84A11604FF0400127
:100F40004FF02042C2F884104FF0FC31F44A116097
:100F50004FF02042C2F88C1070471820F149086009
:100F60004FF000004FF02041C1F8A4004FF0FC30DA
:100F7000ED49086001F10401086001F10401086015
:100F80007047D0E901121143C2681143026911434D
:100F90004269114382691143C2691143026A1143D4
:100FA000426A1143826A1143C26A1143026B1143C0
:100FB0004FF02043026843F822108168082908D1C5
:100FC0001A46016852F8211041F04001026843F8C6
:100FD0002210416B0968426B526841EA0211426B70
:100FE000926841EA0221426BD26841EA0241426BB7
:100FF000126941EA0251426B526941EA0261426B55
:10100000926911430268521C4FF0204343F82210AA
:10101000C16AB1F5804F1AD1816B0968826B526841
:1010200041EA0211826B926841EA0221826B1269E5
:1010300041EA0251826B526941EA0261826B926914
:101040001143026803EB8202C2F8041108E06FF05A
:1010500070414FF02043026803EB8202C2F8041192
:10106000704730B5002100220023446844F0080492
:1010700085682C43C5682C4305692C43456944EABF
:101080004524856944EA4531C4692468C5696D68A9
:1010900044EA0524C569AD6844EA0544C569ED68BC
:1010A00044EA0562046A2468056A6D6844EA052416
:1010B000056AAD6844EA0544056AED6844EA0563DB
:1010C0000468102C05D14FF020442166A266E36627
:1010D00007E0924C21604FF02044C4F88820934CE4
:1010E000236030BD016841F01001426841EA4221AD
:1010F000826841EA42318B4A1160C1680968C2685E
:10110000526841EA0221C268926841EA0241C2681B
:10111000D26841EA0261844A116001690968026982
:10112000526841EA02210269926841EA0241026979
:10113000D26841EA02617E4A1160416909684269E8
:10114000526841EA02214269926841EA02414269D9
:10115000D26841EA02614FF02042C2F8B0107047F5
:10116000002101600221416000218160C1600161B4
:1011700041618161C16101624FF480514162490066
:1011800081620021C16201630F21426B1160426BD9
:101190005160FF21426B91600F21426BD160426B25
:1011A0001161426B51610021426B91610F21826B91
:1011B0001160826B5160FF21826B91600F21826B05
:1011C000D160826B1161826B51610021826B9161F0
:1011D000704710210160002141608160C1600161A0
:1011E00041618161FC21C2691160C2695160C269BB
:1011F0009160C269D160026A1160026A5160026A3C
:101200009160026AD1607047002101604160816095
:10121000FC21C2681160C2685160C2689160C268F6
:10122000D1600269116002695160026991600269CE
:10123000D1604269116042695160426991604269BE
:10124000D160704751B14FF0204252F8202042F057
:1012500001024FF0204343F8202009E04FF02042E4
:1012600052F82020334B1A404FF0204343F82020FF
:10127000704799B1102808D14FF02042126E42F009
:1012800004024FF020431A661DE0244A126842F01F
:1012900004024FF02043C3F8802014E0102809D145
:1012A0004FF02042126E234BDB1E1A404FF02043BA
:1012B0001A6608E0194A12681F4B02EA03024FF04F
:1012C0002043C3F88020704740B11649096841F0B7
:1012D00004014FF02042C2F8A01008E0114909684B
:1012E000154A01EA02014FF02042C2F8A0107047EF
:1012F00099B1102808D14FF02042126E42F04002FE
:101300004FF020431A662DE0044A126842F0400272
:101310004FF02043C3F8802024E00FE0800000A0BD
:10132000880000A0A00000A0A80000A08C0000A0E1
:10133000AC0000A0FEFF0F00FBFF0F00102808D13B
:101340004FF02042126E684B1A404FF020431A664D
:1013500008E0664A1268644B02EA03024FF0204339
:10136000C3F88020704701460020102903D14FF0B8
:101370002042506F01E05E4A1068704710B5F2B12C
:10138000102807D14FF020435B6E0B434FF02044F1
:10139000636632E0B0F5807F08D1564B1B6843EAA4
:1013A00001034FF02044C4F8843026E0524B1B6800
:1013B00043EA01034FF02044C4F8A4301DE0102894
:1013C00007D14FF020435B6E8B434FF020446366A0
:1013D00013E0B0F5807F08D1464B1B6823EA010378
:1013E0004FF02044C4F8843007E0434B1B6823EAE5
:1013F00001034FF02044C4F8A43010BD10B50246DC
:1014000000200023102A03D14FF02044636E07E030
:10141000B2F5807F02D1374C236801E0364C236857
:101420000B4201D0012000E0002010BD102807D1A0
:101430004FF02042526E8A434FF020435A6613E029
:10144000B0F5807F08D12B4A126822EA01024FF0E2
:101450002043C3F8842007E0274A126822EA0102E9
:101460004FF02043C3F8A420704770B50246002017
:10147000002300240025102A03D14FF02046736E6C
:1014800007E0B2F5807F02D11A4E336801E01A4EB0
:10149000336803EA010403EAD10514B10DB1012058
:1014A00000E0002070BD102808D14FF02042526E9D
:1014B00022EAD1024FF020435A6613E0B0F5807F54
:1014C00008D10C4A126822EAD1024FF02043C3F837
:1014D000842007E0084A126822EAD1024FF0204334
:1014E000C3F8A42070470000BFFF0F00800000A0D9
:1014F000940000A0840000A0A40000A000204749A0
:1015000008604749C1F804044649086001F1040134
:101510000860454845490860704700213F49827985
:10152000DAB33F4AD2F8002403689A433C4BC3F82D
:1015300000241A46D2F8042403689A4301F10403F4
:101540001A60027911440A68036842EA03020A60D9
:10155000334AD2F80824036822EA0302304BC3F866
:1015600008241A46D2F80C24036822EA0302304BFE
:101570001A604279102A11D1294AD2F80824036846
:101580001A43274BC3F808241A46D2F80C240368E0
:101590001A43234BC3F80C240EE007E01F4942799D
:1015A00011440A6803681A430A6005E0027911448D
:1015B0000A6803689A430A6070470021016001715C
:1015C0000C2141710021817170471A49096841EA73
:1015D0000001134AC2F81014704701460020134A54
:1015E00012680A4201D0012000E0002070470F4934
:1015F00008607047014600200022084B1B6803EA80
:101600000102074BD3F814340B4202D00AB1012077
:1016100000E0002070470549086070470004014061
:101620000000014008040140FFFF0F0014040140C6
:101630000C0401401004014010B501214807FFF7D8
:10164000D9F800214FF00050FFF7D4F810BD30B5A5
:10165000002200235F4C226840F6FE7404FA00F476
:1016600022EA0402D1E9004544EA05048D6844EA0F
:101670000504CD6844EA050303FA00F444EA0202D3
:10168000554CC4F8002430BD0021016041608160E8
:10169000C160704759B14F4A12684FF0010303FA15
:1016A00000F342EA03024C4BC3F800240AE0494A23
:1016B00012684FF0010303FA00F322EA0302464BDB
:1016C000C3F80024704759B1424A12684FF480535E
:1016D00003FA00F342EA03023F4BC3F800240AE096
:1016E0003C4A12684FF4805303FA00F322EA0302E3
:1016F000394BC3F80024704710B569B1374A1268F6
:101700004FEA10144FF0010303FA04F342EA030214
:10171000314BC3F804240CE0304A12684FEA10142D
:101720004FF0010303FA04F322EA03022A4BC3F841
:10173000042410BD38B12949096841F00301264A43
:10174000C2F8041406E02549096821F00301224A81
:10175000C2F80414704710B54AB11E4B1B6801FA59
:1017600000F443EA04031C4CC4F8003408E0194BAD
:101770001B6801FA00F423EA0403174CC4F8003490
:1017800010BD0022134A00F108031A44116070478B
:101790000022104A00F114031A441160704730B55A
:1017A00000240023082802D142EA012401E042EA91
:1017B0000144084B00F120052B441C6030BD01465C
:1017C0000022044A2C2000EB91000244106880B2F1
:1017D0007047000000740040007000400474004036
:1017E00001684FF6FE721140016000210160416006
:1017F0008160C1608749884208D1864908394968B3
:1018000041F00F01834A083A516088E08149143160
:10181000884208D17F490839496841F0F0017D4A82
:10182000083A51607BE07B492831884208D17949E8
:101830000839496841F47061764A083A51606EE0AF
:1018400074493C31884208D172490839496841F4E9
:101850007041704A083A516061E06E4950318842E7
:1018600008D16C490839496841F47021694A083A3D
:10187000516054E067496431884208D165490839AC
:10188000496841F47001634A083A516047E0614990
:101890007831884208D15F490839496841F0706160
:1018A0005C4A083A51603AE05B49884208D1A0F1AD
:1018B0000401096841F00F01584AC2F804142EE0EF
:1018C00055491431884207D15549096841F0F00162
:1018D000524AC2F8041422E04F492831884207D105
:1018E0004F49096841F470614C4AC2F8041416E08B
:1018F00049493C31884207D14949096841F470415E
:10190000464AC2F804140AE043495031884206D1DD
:101910004349096841F47021404AC2F804147047F1
:1019200010B50022026847F6F0739A430C6A8B6880
:1019300023430C6923434C6923438C692343CC69BB
:1019400023434C6A23438C6A23431A430260CB68C7
:1019500043600B6883604B68C36010BD0021016069
:1019600041608160C160016141618161C161016269
:1019700041628162704721B1026842F00102026057
:1019800004E002684FF6FE731A40026070471AB115
:1019900003680B43036002E003688B4303607047F6
:1019A000416070470146486880B270470146002098
:1019B000002211F0805F02D01A4B1A6801E0174B29
:1019C0001A680A4201D0012000E00020704710F0A0
:1019D000805F02D01249086001E0104948607047FA
:1019E00001460020002211F0805F02D00D4B1A68E2
:1019F00001E00A4B1A680A4201D0012000E00020F1
:101A0000704710F0805F02D00549086001E003498B
:101A1000486070470800024008040240000002408D
:101A2000040402400004024010B50446FF4884420A
:101A300008D10121C014FEF7D0FE0021E014FEF70A
:101A4000CCFEC4E0B4F1804F08D101210846FEF776
:101A5000D1FE00210120FEF7CDFEB8E0F44884421B
:101A600008D101210220FEF7C5FE00210220FEF769
:101A7000C1FEACE0EF48844208D101210420FEF70A
:101A8000B9FE00210420FEF7B5FEA0E0EA4884423A
:101A900008D101210820FEF7ADFE00210820FEF745
:101AA000A9FE94E0E548844208D101211020FEF708
:101AB000A1FE00211020FEF79DFE88E0E048844250
:101AC00008D101212020FEF795FE00212020FEF7FD
:101AD00091FE7CE0DB48844208D101214014FEF7EE
:101AE0007CFE00216014FEF778FE70E0D648844248
:101AF00009D10121C804FEF770FE00214FF4002037
:101B0000FEF76BFE63E0D148844209D1012108054C
:101B1000FEF763FE00214FF48010FEF75EFE56E0F4
:101B2000CB48844209D101214805FEF756FE002129
:101B30004FF40010FEF751FE49E0C648844208D138
:101B400001214020FEF756FE00214020FEF752FE04
:101B50003DE0C148844208D101218020FEF74AFEC1
:101B600000218020FEF746FE31E0BC48844208D1C7
:101B700001218015FEF73EFE0021A015FEF73AFE7A
:101B800025E0B748844209D101210804FEF725FE6B
:101B900000214FF48030FEF720FE18E0B148844267
:101BA00009D101214804FEF718FE00214FF400304E
:101BB000FEF713FE0BE0AC48844208D101218804F3
:101BC000FEF70BFE00214FF48020FEF706FE10BD4D
:101BD00000220288954B98420ED09A4B98420BD027
:101BE000B0F1804F08D0924B984205D0914B98426B
:101BF00002D0914B984204D14FF68F731A404B8814
:101C00001A438E4B984207D08D4B984204D04FF622
:101C1000FF431A40CB881A4302808B8883850B8848
:101C20000385824B98420BD0864B984208D08C4B50
:101C3000984205D08B4B984202D08B4B984201D1F1
:101C40000B7A038601238382704770B5002400223B
:101C50000023058C4FF6FE7635400584028C838880
:101C6000048B4FF68F752C40B51E2C400D882C43ED
:101C7000751E2A400D892A434D882A436B4DA84280
:101C80000BD0704DA84208D0754DA84205D0754DB7
:101C9000A84202D0744DA84213D14FF6F7752A40DE
:101CA0004D892A434FF6FB752A408D882A434FF60B
:101CB000FF652B404FF6FF552B408D892B43CD8977
:101CC0002B4383800483CD888586028470BD70B5E4
:101CD000002400220023058C4FF6EF763540058462
:101CE000028C8388048B48F6FF752C404FF6FF4525
:101CF0002C400D882D0644EA15444FF6DF752A4026
:101D00000D892D0542EA15424D882D0542EA1542FE
:101D1000464DA84202D04B4DA8421BD14FF67F75CD
:101D20002A404D892D0542EA15424FF6BF752A40DB
:101D30008D882D0542EA15424FF6FF352B404FF2B4
:101D4000FF752B408D89AD0443EA1543CD89AD0461
:101D500043EA154383800483CD880587028470BDE0
:101D600070B5002400220023058C4FF6FF66354035
:101D70000584028C8388848B4FF68F752C404FF638
:101D8000FC752C400D882C434FF6FF552A400D89D9
:101D90002D0642EA15424D882D0642EA1542234D92
:101DA000A84202D0274DA8421BD14FF2FF752A400E
:101DB0004D892D0642EA15424FF6FF352A408D889F
:101DC0002D0642EA15424EF6FF752B404DF6FF7583
:101DD0002B408D892D0543EA1543CD892D0543EA16
:101DE000154383808483CD888587028470BD70B558
:101DF000002200230024058C4EF6FF763540058432
:101E0000038C8488828B48F6FF752A404FF6FF4585
:101E10002A400D882D0642EA15424DF6FF752B40EB
:101E20000D892D0743EA15434D881FE0002C014022
:101E30000004004000080040000C0040001000407A
:101E40000014004000340140004C014000500140AB
:101E50000054014000180040001C004000200040D9
:101E60000040014000440140004801402D0743EA82
:101E70001543F94DA84202D0F84DA84206D14BF6C1
:101E8000FF752C408D89AD0544EA1544848082831A
:101E9000CD88A0F84050038470BD828B4FF2FF3391
:101EA0001A408283828B0B0642EA13428283704778
:101EB000F0B50C461546002200210026078C4EF690
:101EC000FF7C07EA0C070784828B018C27073E0CF6
:101ED00040F6FF473A402F0642EA17421F0742EA00
:101EE0001742DD4FB8420ED0DC4FB8420BD0B0F1F4
:101EF000804F08D0DA4FB84205D0DA4FB84202D04E
:101F0000D94FB84206D14DF6FF77394046F4805795
:101F1000394305E047F6FF57394044F480573943C9
:101F200082830184F0BD828B4FF6F3731A40828363
:101F3000828B0A4382837047F0B50C461546002217
:101F400000210026078C4FF6FF6C07EA0C07078478
:101F5000828B018C27063E0C4FF60C773A401F050A
:101F600045EA17473A43BC4FB8420ED0BB4FB84280
:101F70000BD0B0F1804F08D0B94FB84205D0B94F5F
:101F8000B84202D0B84FB84206D14FF6FF57394099
:101F900046F48077394305E04FF2FF57394044F467
:101FA0008077394382830184F0BD028B4FF2FF3387
:101FB0001A400283028B0B0642EA134202837047E7
:101FC000F0B50C461546002200210026078C4FF67E
:101FD000EF7C07EA0C070784028B018C27053E0C77
:101FE00040F6FF473A401F0742EA17422F0642EAEF
:101FF0001742994FB8420ED0984FB8420BD0B0F16B
:10200000804F08D0964FB84205D0964FB84202D0C4
:10201000954FB84206D14FF6DF77394046F01007AA
:10202000394305E04FF65F77394044F010073943F4
:1020300002830184F0BD028B4FF6F3731A400283D2
:10204000028B0A4302837047F0B50C461546002206
:102050000021068C4FF6FE773E400684028B018CF1
:102060004FF60C7632401E0545EA164632437A4E4C
:10207000B0420ED0794EB0420BD0B0F1804F08D0B4
:10208000774EB04205D0774EB04202D0764EB04285
:1020900006D14FF6FD76314044F00106314305E0AC
:1020A0004FF6F576314044F0010631430283018456
:1020B000F0BD70B505460C46674885420ED06748AE
:1020C00085420BD0B5F1804F08D06548854205D0D8
:1020D0006448854202D06448854200D100E000BFD8
:1020E000208850B92389A28861882846FFF7ACFF71
:1020F000E1882846FFF79FFF25E0208804280AD1C1
:102100002389A28861882846FFF75AFFE18828467C
:10211000FFF74BFF17E0208808280AD12389A288FF
:1021200061882846FFF708FFE1882846FFF7FBFE95
:1021300009E02389A28861882846FFF7B9FEE18873
:102140002846FFF7AAFE70BD2DE9F04105460C4672
:1021500000260127608808B9022600E00026A08832
:10216000012801D1022700E001272088A0B9238996
:10217000A28861882846FFF767FFE1882846FFF7B5
:102180005AFF23893A4631462846FFF719FFE1886E
:102190002846FFF70AFF13E02389A28861882846B2
:1021A000FFF70EFFE1882846FFF7FFFE23893A4636
:1021B00031462846FFF748FFE1882846FFF73BFFF6
:1021C000BDE8F0810A884B881A438B881A43CB8874
:1021D0001A430B891A434B891A438B891A43A0F877
:1021E000442070474FF6FF71818000210180C1803B
:1021F0004180017270470021018041808180C1804F
:10220000018141818181C18170470021018041802C
:10221000012181800021C18001817047002101805E
:1022200041808180C180018141818181704721B1DC
:10223000028842F00102028004E002884FF6FE7339
:102240001A400280704789B1B0F8442042F400423D
:10225000A0F8442010E00000002C014000340140B0
:102260000004004000080040000C0040B0F844208A
:10227000C2F30E02A0F84420704710B51AB183894A
:102280000B43838104E08389CC43A4B22340838140
:1022900010BD8182704741EA0203A0F848307047C0
:1022A00010B51AB183890B43838104E08389CC4341
:1022B000A4B22340838110BD01894FF6F87211400A
:1022C000018170470A46002101894FF68F7319403A
:1022D00011430181704730B504460D46294620461A
:1022E000FFF7F0FF208940F00700208130BD2DE985
:1022F000F04104460D4616461F46602D06D13B466A
:10230000012231462046FFF75BFE05E03B460122F5
:1023100031462046FFF798FE29462046FFF7D2FFB8
:10232000208940F007002081BDE8F08130B50C46DF
:1023300000210189C9B21D0642EA154525432943FA
:10234000018130BD2DE9F04105460E4617469846FD
:10235000002443463A4631462846FFF7E7FF2C89DA
:102360004FF6F8710C4044F007044FF68F710C40A3
:1023700044F070042C81BDE8F081F0B504460D46B0
:1023800016461F463B46324629462046FFF7CEFFFB
:10239000208940F480402081F0BD01858282704711
:1023A0000A46002101884FF68F73194011430180BE
:1023B0007047F0B50C4615461E460021002200234A
:1023C0000189028B038C4FF6F877394021434FF691
:1023D000FC473A4040F201173A434FF6DD773B4065
:1023E000370545EA17473B43018102830384F0BD6B
:1023F0000A460021018B4FF68F7319401143018368
:1024000070470A460021018B48F6FF7319401306F6
:1024100041EA1341018370470A460021818B4FF640
:102420008F7319401143818370470A460021818BC5
:1024300048F6FF731940130641EA13418183704740
:1024400021B1028842F08002028004E002884FF647
:102450007F731A400280704721B1828842F00402E3
:10246000828004E082884FF6FB731A4082807047B6
:1024700021B1828842F00802828004E082884FF60F
:10248000F7731A408280704721B1828842F00102BE
:10249000828004E082884FF6FE731A408280704783
:1024A0000A460021018B4FF6F7731940114301834F
:1024B00070470A460021018B4FF2FF731940130643
:1024C00041EA1341018370470A460021818B4FF690
:1024D000F77319401143818370470A460021818BAD
:1024E0004FF2FF731940130641EA1341818370478D
:1024F0000A460021018B4FF6FB73194011430183FB
:1025000070470A460021018B4FF6FF33194013062E
:1025100041EA1341018370470A460021818B4FF63F
:10252000FB7319401143818370470A460021818B58
:102530004FF6FF331940130641EA13418183704778
:102540000A460021018B4FF67F7319401143018326
:1025500070470A460021018BC1F30E01130641EAC0
:102560001341018370470A460021818B4FF67F7328
:1025700019401143818370470A460021818BC1F3C2
:102580000E01130641EA1341818370470A46002178
:10259000018C4FF6FD7319401143018470470A46C0
:1025A0000021018C4FF6F7731940114301847047E5
:1025B0000A460021018C4FF6DF731940130541EAEA
:1025C0001341018470470A460021018C4FF67F7346
:1025D0001940130541EA1341018470470A4600215E
:1025E000018C4FF6FF531940130641EA1341018451
:1025F00070470A460021018C4FF2FF731940130601
:1026000041EA1341018470470A460021018C4DF6CE
:10261000FF731940130741EA13410184704730B535
:10262000002301248C40A3B2048CDD43ADB22C40C6
:102630000484048C02FA01F5ADB22C43048430BD4D
:1026400030B5002304248C40A3B2048CDD43ADB22A
:102650002C400484048C02FA01F5ADB22C430484AE
:1026600030BD70B5034600200024184618300125FF
:102670008D40ACB21D8CE643B6B235401D8409B125
:10268000082909D100EB6100056825F07005056097
:102690000568154305600CE00D1FADB200EB650049
:1026A000056825F4E04505600568160645EA164507
:1026B000056070BD21B1028842F00202028004E090
:1026C00002884FF6FD731A400280704721B10288DC
:1026D00042F00402028004E002884FF6FB731A40C5
:1026E0000280704721B1828842F08002828004E03B
:1026F00082884FF67F731A408280704702884FF6B7
:10270000F7731A40028002880A4302807047828869
:102710004FF68F731A40828082880A438280704706
:1027200002894FF6F8731A40028102890A43028136
:10273000704702894FF67F731A40028102890A436B
:102740000281704781847047818570478186704718
:102750000187704781877047A0F840107047028852
:102760004FF6FF431A40028002880A4302807047F6
:102770000146888E70470146088F70470146888F52
:1027800070470146B1F8400070470146888C704799
:102790000146088D704702460020138A0B4201D083
:1027A000012000E000207047CA430282704730B524
:1027B0000246002000230024158A05EA01039589BA
:1027C00005EA010413B10CB1012000E0002030BD86
:1027D000CA4302827047000000B585B06846FDF725
:1027E00075FF4FF47A720199B1FBF2F0B0F1807F7E
:1027F00000D31CE020F07F41491E4FF0E0225161E0
:1028000000BF5117002905DA0F210901094A0B23DE
:10281000D15404E00F210901074A5317D15400BFD6
:1028200000214FF0E02291610721116100BF05B046
:1028300000BD000018ED00E000E400E000B585B048
:1028400001210420FDF7AFFF01214807FDF7B8FF84
:102850003020ADF8100000208DF8130004A93C488A
:10286000FEF76CF8242000900020019002200390D5
:10287000002002906946FEF7EAFE69461020FEF746
:10288000E6FE01210020FEF705FF01211020FEF7E2
:1028900001FF01211020FEF716FF05B000BD0EB5A7
:1028A00001210846FDF78CFFEF20ADF80400002061
:1028B000ADF80000ADF80600ADF8020069464FF033
:1028C0008040FFF785F920214806FFF720FF01210E
:1028D0008807FFF7ACFC0EBD00B58BB001210220CC
:1028E000FDF754FF1B4800901B48019010200290F8
:1028F00064200390002004908020059080000690C2
:1029000080000790202008900002099000200A9083
:1029100069461248FFF704F801211048FFF72BF829
:102920000BB000BD10B50024FFF788FFFFF7B7FF1D
:10293000FFF7D2FF00BF08E0094830F8140000EBB1
:102940000040054941F82400641C642CF4D310BDF8
:1029500000080140207400409C6A002044040240AA
:10296000CA31010800202B49088070477047704722
:1029700070477047704770B5044610464FF0807539
:102980000560051F28462C606FF00106051F2846CC
:102990002E604FF01236051F28462E604FF003368A
:1029A000051F28462E604FF00236051F28462E6070
:1029B0007610051F28462E60051F284629604FF017
:1029C0001136051F28462E604FF01036051F284689
:1029D0002E604FF00936051F28462E604FF008364E
:1029E000051F28462E604FF00736051F28462E602B
:1029F0004FF00636051F28462E604FF00536051F9E
:102A000028462E604FF00436051F28462E6070BD04
:102A10007047704728000020EFF3108072B67047AF
:102A200080F3108870471D484FF0FF0101700020AF
:102A300080F309881A48012101701A484FF080512B
:102A4000016062B6FEE717484FF0805101607047A1
:102A500014484FF080510160704772B6EFF309805F
:102A600028B1203880E8F00F0F490968086000B5E8
:102A70000E4880475DF804EB0D480E490A78027055
:102A800009480D490A680260106890E8F00F20308C
:102A900080F309884EF0040E62B6704722ED00E024
:102AA0003D00002004ED00E044000020112A000851
:102AB00036000020370000204C0000200246002095
:102AC00005E011F8013B02F8013B431CD8B20B783A
:102AD000002BF6D1137070472DE9F04105460E46E4
:102AE0001446002714B90020BDE8F0811DB9042068
:102AF00020700020F8E71EB90C2020700020F3E7BA
:102B0000FB480078002803DD112020700020EBE74F
:102B10002878012808D0022807D0032802D00428EA
:102B200004D100E000BF00BF00BF03E0012020701F
:102B30000020D9E700BFFFF76FFF074605F10F013F
:102B40003046FFF7BBFF80463846FFF769FF00209D
:102B500020704046C8E70146002002E0491C421CA4
:102B6000D0B20A78002AF9D170472DE9F041054624
:102B70000E4614464FF000080CB9BDE8F08115B9B7
:102B800004202070F9E716B90C202070F5E7D8482A
:102B90000078002802DD12202070EEE72878012856
:102BA00008D0022807D0032802D0042804D100E06E
:102BB00000BF00BF00BF02E001202070DDE700BFC2
:102BC000FFF72AFF80463046FFF7C5FF07460F2F65
:102BD00005DD4046FFF724FF0B202070CDE731468E
:102BE00005F10F00FFF76AFF4046FFF719FF0020CD
:102BF000207000BFC1E7002400BFFFF70DFF0446AF
:102C0000BC480068401CBB4908602046FFF708FF2D
:102C1000FFF7AFFEF1E700B587B003230022802164
:102C2000B548CDE90323CDE901014FF6FF730093C9
:102C30001F2300F5FE720021AFF2450001F0EAFB10
:102C400006AAAEA11F2001F055FD07B000BD04E0AB
:102C5000002200F8012B4A1E91B20029F8DC7047CF
:102C600030B54FF4A071A948FFF7F1FFA74B03F16E
:102C7000200500240AE0002018705D603F20D87312
:102C80000021197420332035601C84B2092CF2DB3A
:102C90000020187058603F20D873002119749B4899
:102CA0009B49086030BD30B540F294519948FFF718
:102CB000CEFF80219848FFF7CAFF964B03F15405D9
:102CC00000240AE05D613F2083F844000021452094
:102CD000C15454335435601CC4B2102CF2D30020BC
:102CE00058613F2083F8440000214520C154002052
:102CF0008A49086087488A49086030BD0022894BAC
:102D00001A708949002004E0002201F8012B421CBE
:102D1000D0B20428F8DB0022844B1A70844B1A705E
:102D2000844B1A60844B1A60704700208349086006
:102D30006F4908708249087082490870824908709A
:102D4000824908606B490860704710B5FFF70AFEBA
:102D5000FFF7EBFFFFF7D2FFFFF7A5FFFFF780FFBD
:102D600000F0ADFD01F0E9F8FFF755FF02F05DF965
:102D7000FFF7FCFD10BD74480078012808D15C48BD
:102D80000078FF2804D25A480078401C584908703F
:102D900070476F49634A1278885C6349095C6C4AE2
:102DA000515C01EBC001624A1170704710B50024FC
:102DB00065480078012830D1FFF72EFE04464C48C4
:102DC0000078002804DD4A480078401E4849087011
:102DD00047480078F0B95A480078D8B9FFF7D9FFCA
:102DE0005348007851490978884213D04A485049DD
:102DF000097850F821004F49086008460068006BC8
:102E0000401C0968086351480068401C4F4908602D
:102E1000FFF71EFE2046FFF703FE10BD10B54A481F
:102E2000007890B9FFF7B5FF414800783F49087036
:102E300039483F49097850F821003E490860084662
:102E400000683D490860FFF7EEFD10BD70B5002534
:102E5000FFF7E2FD054639480068401C3749086025
:102E60002846FFF7DDFD3848007801283FD12B4880
:102E7000046838E0FFF7D0FD0546A08C78B3A08C3D
:102E8000401E0004000CA08429D194F8260010F004
:102E9000370F09D014F8260F20F0370020700120DA
:102EA0006070A4F1260402E0002084F8270094F862
:102EB000260010F0080F12D104F12A04A078194955
:102EC000097840EA01001749087020781649085C23
:102ED000617840EA010014F82A19134A50546469D1
:102EE0002846FFF79DFD94F828001F28C2D170BD29
:102EF00034000020400000206C6D002075432F4FEF
:102F0000532D49492049646C650000002C6C002059
:102F100030000020EC6F00206C6F0020500000207B
:102F20004800002038000020390000203600002032
:102F3000370000204C000020440000205C000020EE
:102F4000350000203E0000203D0000202C00002025
:102F5000923201084FF48F707047704710B590F8A7
:102F60002A2001F10B039B5C90F82B40A34301F155
:102F70000B04A35423469B5C23B98B7A90F82C4016
:102F8000A3438B7210BD2DE9F04F05460F469046C6
:102F90009946A87A9B490E5C05F10B00805D11F8FB
:102FA00000B00BEBC60000F0FF0A974850F82A402B
:102FB000002004F12004A0802760A07920EA080006
:102FC000A07184F80790A079A4F1200410F0080FF4
:102FD0000DD194F82C008D49097808438B4908706D
:102FE0008B48805D94F82B10084389498855294601
:102FF0002046FFF7B3FF5046BDE8F08F10B5854A75
:103000001268D061834A126892F82A3000F10B02EC
:10301000D25C804B1B6893F82B301A437D4B1B68A6
:1030200093F82A4000F10B031A55827A794B1B68FA
:1030300093F82C301A438272764A126892F82A105A
:10304000734A525C734B1B6893F82B309A43704B56
:103050005A541A46525C42B96E4A126892F82C30A1
:103060006A4A12789A43694B1A7010BD0023837222
:1030700000F10B01002204E0002301F8013B531C86
:10308000DAB2042AF8DB704705E011F8013B00F8DA
:10309000013B531E9AB2002AF7DC704710B500249A
:1030A000FFF7BAFC04465C480078F0B95B4800784A
:1030B000D8B9FFF76EFE5A4800785A490978884215
:1030C00013D051485649097850F8210056490860F4
:1030D00008460068006B401C096808635348006894
:1030E000401C52490860FFF7AEFC2046FFF798FCF1
:1030F00010BD2DE9F84F05460E4617469846DDE906
:103100000BABDDF8289000200090FFF785FC0090C5
:1031100047480468F4B354F8140F45490860009810
:10312000FFF77EFC44F8146C25750020A074E07451
:10313000208244F810AC44F8089C44F80C7C24F835
:1031400004BC24F8028C6076E810A07505F0070036
:103150006075A17D012088402076617D0120884036
:10316000E0750020A060E060E06160622062A06223
:10317000E0623F2084F83000A4F114044FF0000115
:103180004FF0450001552046FFF743FC2046FFF76E
:10319000EEFB00E031E0FFF73FFC00901A4840F8FA
:1031A00025402448006860610020A0612148006833
:1031B00010B12048006884611E48046004F12A04AC
:1031C000A0781249097840EA010010490870207877
:1031D0000F49085C617840EA010014F82A190C4A8A
:1031E00050541548007800F1010013490870009808
:1031F000FFF716FC0020BDE8F88F0098FFF710FCE1
:103200004220F8E7923201086C6F0020380000205D
:103210003900002044000020340000203500002048
:1032200037000020360000204C0000202C00002039
:1032300048000020500000203E00002070B50446E9
:1032400000260CB9002070BD2078012801D0002094
:10325000F9E7FFF7E1FB064665680020606030464D
:10326000FFF7DEFB2846EEE770B505460026FA4874
:103270000078002801DD002070BDFFF7CDFB064679
:10328000F6480468006820B1F44800684068F349D3
:1032900008603046FFF7C4FB5CB1012020700020BD
:1032A000208165603F20E073002121742046FFF7F4
:1032B000DDFE2046E0E72DE9F04704468846154646
:1032C0004FF0000915B92046BDE8F0871CB904206D
:1032D00028702046F8E72078012803D001202870C4
:1032E0002046F1E7DC480078002803DD0F20287035
:1032F0002046E9E7FFF790FB8146A07A08B1012755
:1033000000E00027B8F1000F03D0B8F1010F3ED163
:103310001BE09FB93F20E073002121740020207042
:10332000CE480068606000202081CC480460484698
:10333000FFF776FB00202870002605E04846FFF7DF
:103340006FFB49202870264628E005E00023022272
:1033500019462046FFF717FEA07A0028F6D13F2035
:10336000E0730021217400202070BC480068606078
:1033700000202081B94804604846FFF751FB012F27
:1033800001D1FFF78BFE00202870002606E048469A
:10339000FFF746FB07202870264600BF00BF3046D7
:1033A00092E72DE9F04105460F4614464FF000081C
:1033B00014B90020BDE8F0811DB904202070002060
:1033C000F8E72878012803D0012020700020F1E7D9
:1033D000A1480078002803DD022020700020E9E7E2
:1033E0009F480078002803DD0D2020700020E1E7D1
:1033F000FFF712FB80466E6846B1002068604046C9
:10340000FFF70EFB002020703046D3E79548006898
:1034100090F8260040F002009249096881F82600E1
:1034200000209049096881F827008E480068878449
:103430002846FFF7E3FD4046FFF7F2FAFFF72EFEBE
:10344000FFF7EAFA80468748006890F8270020B125
:1034500001280DD002280AD105E082480068066ADA
:10346000002020700DE000260E20207009E000BF33
:1034700029467C480068FFF771FD00260A2020706D
:1034800000BF00BF00207749096881F82600754910
:10349000096881F8270073490968C861714909689A
:1034A00008624046FFF7BCFA304683E72DE9F04159
:1034B00005460F4614464FF0000814B90020BDE839
:1034C000F0811DB9042020700020F8E72878012839
:1034D00003D0012020700020F1E7FFF79DFA80461D
:1034E000A87A20B300267FB1012F0CD107E0022378
:1034F0001A4600212846FFF746FD701CC6B2A87A7E
:103500000028F4D109E000BF02231A460021284612
:10351000FFF739FD701CC6B200BF00BF4046FFF781
:103520007FFAFFF7BBFD0E2020703046C7E740460C
:10353000FFF776FA0020207000BFC0E770B50446A0
:103540000D4600260CB9042070BD0DB90320FBE721
:103550002078012801D00120F6E7FFF75DFA064642
:10356000A07A60B10023022229462046FFF70BFD16
:103570003046FFF755FAFFF791FD0020E4E7606859
:1035800020B13046FFF74CFA1420DDE76560304685
:10359000FFF746FA0020D7E72DE9F04104460D4633
:1035A0001646002714B90420BDE8F0810DB90320A8
:1035B000FAE72078012801D00120F5E7FFF72CFA7F
:1035C0000746A07AE8B116F0010F0AD005E0002303
:1035D000022229462046FFF7D6FCA07A0028F6D121
:1035E00005E00023022229462046FFF7CCFC38469E
:1035F000FFF716FA16F0040F01D1FFF74FFD002078
:10360000D2E7606820B13846FFF70AFA1420CBE70A
:1036100065603846FFF704FA0020C5E72DE9F0475A
:1036200004460D464FF0000914B90420BDE8F087A8
:103630000DB90920FAE72078012801D00120F5E72B
:10364000FFF7EAF98146A07A287204F10B0705F129
:10365000040800260EE000003400002030000020A6
:10366000350000204400002017F8010B08F8010B7A
:10367000701CC6B2042EF7DB606828604846FFF76E
:10368000CFF90020D2E700002DE9F84F06460F469B
:1036900090461C46002000900CB9BDE8F88F1EB97A
:1036A000622020700020F8E716F0030F03D062209C
:1036B00020700020F1E7022F03D25B202070002051
:1036C000EBE7B8F1040F03D25C2020700020E4E7A0
:1036D000FFF7A2F900908B480568006820B189487F
:1036E00000684068874908600098FFF799F91DB99C
:1036F0005A2020700020D0E7B14606EB080A4FF0B0
:10370000000B05E0C9F800A0D146C2440BF1010B43
:10371000781E5845F6D80020C9F800002E606E606B
:103720002F61EF60C5F8088020702846B5E72DE9C5
:10373000F04104460D46002715B90020BDE8F08190
:103740001CB9602028700020F8E7FFF765F90746EC
:10375000206960B16668306860602069401E206141
:103760003846FFF75DF9002028703046E6E7384616
:10377000FFF756F95D2028700020DFE72DE9F041C2
:1037800005460E461446002714B90020BDE8F08116
:103790001DB9602020700020F8E71EB90C202070B1
:1037A0000020F3E758480078002803DD112020703E
:1037B0000020EBE7FFF730F9074605F1140130462A
:1037C000FFF77CF980463846FFF72AF90020207081
:1037D0004046DBE72DE9F04105460E4614464FF022
:1037E00000080CB9BDE8F08115B960202070F9E738
:1037F00016B90C202070F5E743480078002802DD58
:1038000012202070EEE7FFF707F980463046FFF7F9
:10381000A2F907460F2F05DD4046FFF701F96320A7
:103820002070DFE7314605F11400FFF747F9404605
:10383000FFF7F6F80020207000BFD3E770B504460C
:103840000D4600260CB9602070BD0DB95F20FBE766
:10385000FFF7E2F80646D4E90310884204D3304665
:10386000FFF7DEF85E20EFE760682860656020699A
:10387000401C20613046FFF7D3F80020E4E770B524
:1038800005460C4600260DB9602070BD0CB96120BC
:10389000FBE7FFF7C1F806462868206068686060AB
:1038A000A868A060E868E060286920613046FFF7FA
:1038B000B7F8D4E90301401A60610020E5E770B56C
:1038C000B4211248FFF7C3F9104C00250DE0681C25
:1038D00000EBC0000D4901EB800060603F202075C7
:1038E000002161752434681C85B2042DEFDB0020B3
:1038F00060603F202075002161750448014908601F
:1039000070BD0000540000203400002080750020AD
:103910002DE9F04106460D464FF0000815B900208C
:10392000BDE8F0811EB9042028700020F8E7307847
:10393000022803D0012028700020F1E7FFF76CF87F
:1039400080467468E08A00280FDD2169081D206127
:103950000F68E08A401EE082A1682069884201D198
:10396000606820610020287002E01F202870002776
:103970004046FFF755F83846D2E72DE9F0410646B4
:103980000F464FF00008FE480078002802DD0020B6
:10399000BDE8F081FFF740F88046FA480468006807
:1039A00020B1F84800684068F64908604046FFF7D3
:1039B00037F80CB3FFF730F88046F3480568E5B1F7
:1039C00000680068F04908604046FFF729F86E601B
:1039D00006EB8700A860EE602E61AF820020E882CF
:1039E000022020700020208165603F20E0730021CC
:1039F00021742046FFF73AFB08E0E2480068606067
:103A0000E04804604046FFF70BF800242046BFE77B
:103A10002DE9F0470446894615464FF0000A15B9CE
:103A20002046BDE8F0871CB9042028702046F8E73E
:103A30002078022803D0012028702046F1E7D048E2
:103A40000078002803DD0F2028702046E9E7FEF704
:103A5000E3FF8246A07A10B14FF0010801E04FF079
:103A60000008B9F1000F03D0B9F1010F4DD123E0E7
:103A7000B8F1000F19D13F20E0730021217466686E
:103A8000C14800683060C048066000202070BD4812
:103A90000068606000202081BA4804605046FEF74C
:103AA000BFFF00202870002705E05046FEF7B8FF52
:103AB0004920287027462FE005E0002304221946FC
:103AC0002046FFF760FAA07A0028F6D13F20E07385
:103AD000002121746668AC4800683060AA4806601E
:103AE00000202070A7480068606000202081A54861
:103AF00004605046FEF794FFB8F1010F01D1FFF7C3
:103B0000CDFA00202870002706E05046FEF788FF17
:103B100007202870274600BF00BF384681E770B5F0
:103B2000054600260DB9042070BD2878022801D072
:103B30000120F9E7FEF770FF06466C686068E060F8
:103B4000606820610020E0823046FEF769FF0020B7
:103B5000EAE72DE9F0470646884615464FF000098A
:103B600015B90020BDE8F0871EB904202870002098
:103B7000F8E73078022803D0012028700020F1E710
:103B80007F480078002803DD022028700020E9E744
:103B90007E480078002803DD0D2028700020E1E732
:103BA000FEF73AFF81467468E08A002813DD216938
:103BB000081D20610F68E08A401EE082A16820692C
:103BC000884201D1606820614846FEF729FF002045
:103BD00028703846C6E76E48006890F8260040F026
:103BE00004006B49096881F82600002068490968CB
:103BF00081F8270066480068A0F824803046FFF767
:103C0000FDF94846FEF70CFFFFF748FAFEF704FF00
:103C100081465F48006890F8270020B101280DD048
:103C200002280AD105E05A480068076A0020287077
:103C30000DE000270E20287009E000BF31465448EF
:103C40000068FFF78BF900270A20287000BF00BF2B
:103C500000204F49096881F826004D49096881F81C
:103C600027004B490968C861494909680862484604
:103C7000FEF7D6FE384675E72DE9F04105460F46BA
:103C800014464FF0000814B90020BDE8F0811DB9BA
:103C9000042020700020F8E72878022803D00120B3
:103CA00020700020F1E7FEF7B7FE8046A87A20B327
:103CB00000267FB1012F0CD107E00223042200214E
:103CC0002846FFF760F9701CC6B2A87A0028F4D124
:103CD00009E000BF0223042200212846FFF753F920
:103CE000701CC6B200BF00BF4046FEF799FEFFF74A
:103CF000D5F90E2020703046C7E74046FEF790FE0B
:103D00000020207000BFC0E72DE9F04105460E46B7
:103D1000002715B90420BDE8F0812878022801D0D9
:103D20000120F8E7FEF778FE0746A87A60B1002385
:103D3000042231462846FFF726F93846FEF770FE82
:103D4000FFF7ACF90020E6E76C68E08AA18A8842B8
:103D500004DB3846FEF764FE1E20DCE7E168081D40
:103D6000E0600E60E08A401CE082D4E902108842E4
:103D700001D16068E0603846FEF752FE0020CAE7D5
:103D800034000020300000205800002035000020C2
:103D9000440000202DE9F04105460E46002715B9E4
:103DA0000420BDE8F0812878022801D00120F8E73E
:103DB000FEF732FE0746A87A60B10023042231469E
:103DC0002846FFF7E0F83846FEF72AFEFFF766F9C7
:103DD0000020E6E76C68E08AA18A884204DB384666
:103DE000FEF71EFE1E20DCE761682069884201D1D3
:103DF000A06820612069001F206120690660E08AB8
:103E0000401CE0823846FEF70BFE0020C9E72DE992
:103E1000F04105460F4616464FF0000815B904203C
:103E2000BDE8F0812878022801D00120F8E7FEF7EC
:103E3000F3FD8046A87AE8B116F0010F0AD005E03C
:103E40000023042239462846FFF79DF8A87A002867
:103E5000F6D105E00023042239462846FFF793F8FF
:103E60004046FEF7DDFD16F0040F01D1FFF716F90D
:103E70000020D5E76C68E08AA18A884204DB4046CE
:103E8000FEF7CEFD1E20CBE716F0020F0BD06168C7
:103E90002069884201D1A06820612069001F20614B
:103EA0002069076009E0E168081DE0600F60D4E95F
:103EB0000210884201D16068E060E08A401CE08224
:103EC0004046FEF7ADFD0020AAE72DE9F047054684
:103ED0000C464FF0000A15B90420BDE8F0870CB974
:103EE0000920FAE72878022801D00120F5E7FEF73B
:103EF00093FD8246A87A207305F10B0804F10809A6
:103F0000002705E018F8010B09F8010B781CC7B26F
:103F1000042FF7DB6E68F08A002803DD3069006843
:103F2000206001E000202060F08AA080B08AE0805C
:103F30005046FEF775FD0020CFE770B560210A48B6
:103F4000FEF785FE084C04F11806002504E0266003
:103F500018341836681C85B2032DF8DB0020206069
:103F600001480249086070BD3476002058000020E6
:103F700070B5044600260CB9002070BD20780328D7
:103F800001D00020F9E7FEF747FD06462589002D00
:103F900002DD2089401E20813046FEF741FD284683
:103FA000EBE770B505460026EF480078002801DDF4
:103FB000002070BDFEF730FD0646EC48046800683E
:103FC00020B1EA4800684068E84908603046FEF7DA
:103FD00027FD5CB1032020702581002060603F2018
:103FE000E073002121742046FFF740F82046E0E707
:103FF0002DE9F0470446884615464FF0000915B9EB
:104000002046BDE8F0871CB9042028702046F8E758
:104010002078032803D0012028702046F1E7D248F9
:104020000078002803DD0F2028702046E9E7FEF71E
:10403000F3FC8146A07A08B1012700E00027B8F11F
:10404000000F03D0B8F1010F3ED11BE09FB93F2014
:10405000E0730021217400202070C4480068606073
:1040600000202081C14804604846FEF7D9FC0020AA
:104070002870002605E04846FEF7D2FC492028704B
:10408000264628E005E00023012219462046FEF7D7
:104090007AFFA07A0028F6D13F20E0730021217436
:1040A00000202070B1480068606000202081AF4887
:1040B00004604846FEF7B4FC012F01D1FEF7EEFF85
:1040C00000202870002606E04846FEF7A9FC0720DD
:1040D0002870264600BF00BF304692E72DE9F04128
:1040E00005460E46144600270CB9BDE8F08115B907
:1040F00004202070F9E72878032802D001202070DE
:10410000F3E799480078002802DD02202070ECE7F0
:1041100097480078002802DD0D202070E5E7FEF7C3
:104120007BFC07462889002808DD2889401E288155
:104130003846FEF775FC00202070D6E78D480068F1
:1041400090F8260040F001008A49096881F82600AD
:1041500000208849096881F827008648006886841D
:104160002846FEF74BFF3846FEF75AFCFEF796FF4F
:10417000FEF752FC07467F48006890F8270020B100
:10418000012809D0022806D102E0002020700BE0AF
:104190000E20207008E000BF294676480068FEF730
:1041A000DDFE0A20207000BF00BF002071490968B1
:1041B00081F826006F49096881F827006D49096870
:1041C000C8613846FEF72CFC00BF8EE72DE9F041B0
:1041D00005460F4614464FF0000814B90020BDE80C
:1041E000F0811DB9042020700020F8E7287803280A
:1041F00003D0012020700020F1E7FEF70DFC80467F
:10420000A87A20B300267FB1012F0CD107E002234A
:10421000012200212846FEF7B6FE701CC6B2A87A1D
:104220000028F4D109E000BF022301220021284622
:10423000FEF7A9FE701CC6B200BF00BF4046FEF7E5
:10424000EFFBFEF72BFF0E2020703046C7E74046FD
:10425000FEF7E6FB0020207000BFC0E770B5044603
:1042600000250CB9042070BD2078032801D001205E
:10427000F9E7FEF7D1FB0546A07A60B100230122E1
:1042800019462046FEF77FFE2846FEF7C9FBFEF7DB
:1042900005FF0020E7E720894FF6FF71884207D22B
:1042A0002089401C20812846FEF7BAFB0020DAE76F
:1042B0002846FEF7B5FB3220D5E72DE9F047044646
:1042C0000D464FF0000914B90420BDE8F0870DB980
:1042D0000920FAE72078032801D00120F5E7FEF74E
:1042E0009BFB8146A07AA87104F10B07AE1C4FF02E
:1042F000000807E017F8010B06F8010B08F10100B0
:1043000000F0FF08B8F1040FF4DB2089288048464C
:10431000FEF786FB0020D8E72DE9F04104460E4663
:10432000154600270DB9BDE8F08114B904202870A6
:10433000F9E72078032802D001202870F3E7FEF780
:104340006BFB0746002028702089002801DD2681AC
:1043500005E0A07A08B9268101E049202870384696
:10436000FEF75EFB00BFDEE73400002030000020D7
:1043700035000020440000202DE9FE4F06460F4680
:1043800090461C464FF000091F2C02DD2A20BDE894
:10439000FE8FFEF741FB8146F8480078002804DDD7
:1043A0004846FEF73DFB3C20F1E7F54850F8240075
:1043B00058BB0120F24941F824004846FEF730FB83
:1043C0000023424639463046FEF7D5FA824600239E
:1043D000009301931A46514620460293FEF789FE48
:1043E000054635B9E748007801280CD1FEF756FE9E
:1043F00009E0FEF711FB81460020E14941F8240065
:104400004846FEF70DFB2846C1E74846FEF708FB85
:104410002820BCE72DE9FF4F85B006460F469046A1
:104420001C46DDE913ABDDF84890002003901F2CFB
:1044300003DD2A2009B0BDE8F08FFEF7EDFA039006
:10444000CE480078002804DD0398FEF7E9FA3C2006
:10445000F0E7CB4850F8240068BB0120C84941F878
:1044600024000398FEF7DCFA424639463046169B94
:10447000FEF781FA0490DDE91523CDE900B202933D
:104480004B46524620460499FEF733FE054635B9A1
:10449000BC48007801280CD1FEF700FE09E0FEF7C9
:1044A000BBFA03900020B64941F824000398FEF7B8
:1044B000B7FA2846BEE70398FEF7B2FA2820B9E714
:1044C00070B505460026AD480078002801DD402083
:1044D00070BD1F2D01D13E20FAE71F2D03DBFF2DFC
:1044E00001D02A20F4E7FEF797FA0646FF2D03D104
:1044F000A548006890F82850A14850F8254024B9F4
:104500003046FEF78DFA4320E2E7012C04D1304615
:10451000FEF786FA3D20DBE714F82A0F9B49085C7A
:10452000617888432178994A505414F82A09114631
:10453000085C30B994F82C10954800788843944969
:104540000870E06918B12046E169FEF707FD002018
:10455000A08484F8260084F827008E480078FF287D
:1045600004D28C480078401C8A4908703046FEF717
:1045700057FAFEF7F2FCFEF74FFA06468548007838
:10458000002804DD83480078401E824908702046D8
:10459000FEF7EEF980480078401E7F490870002041
:1045A000774941F82500A06930B900206169886128
:1045B0007A496069086005E0D4E905014861D4E9F9
:1045C00005108861764800686061754804603F2086
:1045D00084F844000021452001553046FEF720FABA
:1045E00068480078012801D1FEF758FD00206FE7E8
:1045F0002DE9F041044600271F2C02D13E20BDE8E2
:10460000F0811F2C03DBFF2C01D02A20F7E7FF2CC1
:104610000BD1FEF701FA07465B48006890F82D6061
:104620003846FEF7FDF93046E9E7FEF7F5F90746AB
:10463000534850F8245025B93846FEF7F1F9432085
:10464000DDE7012D04D13846FEF7EAF93D20D6E733
:104650003F2085F82D003846FEF7E2F90020CEE72E
:104660002DE9F04705460F4614464FF0000814B9EF
:104670000020BDE8F0871F2D05DDFF2D03D02A2087
:1046800020700020F5E71FB90C2020700020F0E713
:104690003A480078002803DD112020700020E8E768
:1046A000FEF7BAF98046FF2D03D13748006890F82D
:1046B0002850334850F8256036B94046FEF7B0F927
:1046C000432020700020D4E7012E06D14046FEF79B
:1046D000A7F9432020700020CBE706F144013846BB
:1046E000FEF7ECF981464046FEF79AF9002020706B
:1046F0004846BEE72DE9F04705460F4614464FF001
:1047000000090CB9BDE8F0871F2D04DDFF2D02D094
:104710002A202070F6E717B90C202070F2E717481E
:104720000078002802DD12202070EBE7FEF774F914
:104730008146FF2D03D11448006890F82850104896
:1047400050F825602EB94846FEF76AF943202070DC
:10475000D8E7012E05D14846FEF762F943202070C4
:10476000D0E73846FEF7F7F98046B8F10F0F19DDAC
:104770004846FEF755F941202070C3E73400002079
:104780006C6F00203D000020440000203900002014
:1047900038000020350000203E000020500000209E
:1047A00048000020394606F14400FEF787F94846E4
:1047B000FEF736F90020207000BFA3E770B505466C
:1047C00000261F2D01DB2A2070BDFEF725F90646C5
:1047D0004F4850F8254024B93046FEF721F94620CD
:1047E000F2E7012C04D13046FEF71AF94320EBE73B
:1047F00094F8260010F0080F2FD014F8260F20F0A0
:104800000800207014F8260910BBA08CE0B904F150
:104810002A04A0783F49097840EA01003D49087020
:1048200020783D49085C617840EA010014F82A19B3
:10483000394A50543046FEF7F3F8384800780128DA
:1048400009D1FEF72BFC06E03046FEF7E9F802E05E
:104850003046FEF7E5F80020B6E73046FEF7E0F810
:104860004420B1E72DE9F04105464FF000081F2D27
:1048700002D14720BDE8F0811F2D03DBFF2D01D0C1
:104880002A20F7E7FEF7C8F88046FF2D05D1244817
:10489000006890F82850012608E02148006890F848
:1048A0002800A84201D1012600E00026184850F84F
:1048B000254024B94046FEF7B3F84820DAE7012C3A
:1048C00004D14046FEF7ACF84320D3E794F82A70B1
:1048D0001148C05D94F82B1088430F49C85508460D
:1048E000C05D30B994F82C100A4800788843094913
:1048F000087094F8260040F0080084F8260040462E
:10490000FEF78EF8012E01D1FEF7C8FB0020B1E7BB
:104910006C6F002038000020390000203D0000208E
:104920004400002070B50546002622480078002883
:1049300000DD70BD002D23DDFEF76EF806461E4833
:10494000006890F82A401D48005D1B49096891F8ED
:104950002B108843194908550846005D40B9164890
:10496000006890F82C1016480078884314490870A5
:104970001148006885843046FEF752F8FEF78EFB3A
:1049800000BFD6E770B50025FEF746F805460D488E
:1049900004682846FEF744F8204670BD70B504460A
:1049A0000025FEF739F80546064804602846FEF75C
:1049B00037F870BD3400002044000020390000208A
:1049C000380000205C00002010B5FA480068FFF7AE
:1049D00045FC10BDF848006808B900207047F6484B
:1049E0000168F54AC86810600020C8600861F34893
:1049F0000088401CF14A1080F1480088401EF04AAF
:104A000010800846EAE708B56A460021E9480068D0
:104A1000FFF764FB08BD2DE9FF5F06460F46904691
:104A20009B46DDE90F951DB9002004B0BDE8F09F5D
:104A3000B8F1010F08D0B8F1020F0BD11FB98320D4
:104A400028700020F1E709E01EB9822028700020BC
:104A5000EBE703E0842028700020E6E700BFD94898
:104A60000078002803DD8B2028700020DDE7FFF7A9
:104A7000CAFFFFF7AFFF04462CB9FFF7A5FF86205A
:104A800028700020D1E7012084F83100A661E76199
:104A900084F83080C4F804B00E98A060B9F1000F1B
:104AA00018D04846FEF757F88246BAF1100F05DADB
:104AB000494604F12000FEF701F80BE0232084F8BA
:104AC00020000021212001558C202870FFF77CFF59
:104AD0002046AAE7FFF778FF002028702046A4E7C9
:104AE000002180F8311080F83010C16141614160CF
:104AF00081603F2180F82010002221210A540021EA
:104B00000161AD490968C160AB490860AB490988DA
:104B1000491EAA4A1180AA490988491CA84A11803D
:104B2000704730B5456905F00704A74D05EBC40390
:104B30001D68854205D1C168196039B100250D6134
:104B400004E00169C268CA6002B11161012580F800
:104B500031500025C56005619D886D1E9D8030BD6A
:104B600070B505460C460CB9002070BD1DB98A20F1
:104B700020700020F9E72878642803D0892020706D
:104B80000020F2E78F480078002803DD8B2020709A
:104B90000020EAE7FFF737FF95F83100D8B1012888
:104BA0000FD002280ED003281BD12846FFF7B9FFEB
:104BB0002846FFF795FFFFF707FF00202070012030
:104BC000D3E700BF2846FFF78BFFFFF7FDFE00206D
:104BD00020700120C9E7FFF7F7FE87202070002032
:104BE000C3E7FFF7F1FE8D2020700020BDE72DE91F
:104BF000F04105460E46144614B90020BDE8F08188
:104C00001EB9882020700020F8E71DB98A20207086
:104C10000020F3E72878642803D089202070002042
:104C2000ECE768480078002803DD112020700020A0
:104C3000E4E7FFF7E8FE95F8310098B1012804D0C9
:104C4000022803D0032813D100BF00BF05F12001C3
:104C50003046FDF733FF0746FFF7B6FE0020207011
:104C60003846CBE7FFF7B0FE872020700020C5E76D
:104C7000FFF7AAFE8D2020700020BFE770B5054623
:104C80000C460CB9002070BD1DB98A202070002090
:104C9000F9E72878642803D0892020700020F2E703
:104CA00048480078002803DD8B2020700020EAE7C8
:104CB000FFF7A9FE95F8310070B301280DD0022846
:104CC00025D003282ED1414968690968461AFFF7A3
:104CD0007BFE002020703046D5E795F83000012893
:104CE0000CD0022809D1A86908B9EE6900E0AE69C4
:104CF000FFF76AFE0020207006E000BFAE69FFF7F4
:104D000063FE0020207000BF00BF3046BBE7FFF706
:104D10005BFE00202070B6E7FFF756FE872020706C
:104D20000020B0E7FFF750FE8D2020700020AAE79A
:104D300070B505460C460CB9002070BD1DB98A201F
:104D400020700020F9E72878642803D0892020709B
:104D50000020F2E71B480078002803DD8B2020703C
:104D60000020EAE7FFF74FFE95F8316036B1012EDB
:104D700005D0022E04D0032E06D102E000BF00BFF2
:104D800000BF0020207002E08D20207000BF00BF17
:104D9000FFF71AFE3046D0E770B50C46032580F8C1
:104DA0003150012C14D1094EC5693668354445612E
:104DB0001BE000006800002070000020620000205E
:104DC0006000002034000020D47B0020640000201C
:104DD00085692DB9BD4EC56936683544456104E025
:104DE000BA4E8569366835444561456905F0070363
:104DF000B74D05EBC3010D682DB908600025C560EE
:104E000001258D8006E00A680860C26010618D8807
:104E10006D1C8D800025056170BD70B505460C4682
:104E20000CB9002070BD1DB98A2020700020F9E760
:104E30002878642803D0892020700020F2E7A54854
:104E40000078002803DD8B2020700020EAE7FFF7C0
:104E5000DAFD95F83100E8B1012810D002280FD012
:104E600003281DD12846FFF75CFE00212846FFF7E6
:104E700093FFFFF7A9FD002020700120D2E700BFBB
:104E800000212846FFF788FFFFF79EFD00202070D5
:104E90000120C7E7FFF798FD872020700020C1E7B9
:104EA000FFF792FD8D2020700020BBE72DE9F04137
:104EB00005460F4690461C4614B90020BDE8F08117
:104EC0001DB98A2020700020F8E72878642803D0D4
:104ED000892020700020F1E77E480078002803DD5B
:104EE0008B2020700020E9E7FFF78DFD95F8310059
:104EF00090B301282AD0022827D0032833D128468E
:104F0000FFF70FFE00202070B7B1032F02D0042F4F
:104F100013D108E06E681EB12846A968B04701E0C9
:104F20008F2020700CE06E681EB141462846B047C5
:104F300001E08F20207003E002E08420207000BF99
:104F400000BFFFF741FD0120B8E700BFFFF73CFDC0
:104F50008E2020700120B1E7FFE7FFF735FD8720A5
:104F600020700020AAE7FFF72FFD8D202070002081
:104F7000A4E710B558480068FFF770F904462046CA
:104F800010BD08B500BF6A46002153480068FFF70E
:104F9000A5F8FFF738FD4D480068401C4B490860F4
:104FA0000846006800F00706494800EBC608D8F834
:104FB00000401AE0E768454960690968884213D1F2
:104FC000656815B12046A168A8472046FFF7A9FDEE
:104FD00094F83000022804D101212046FFF7DCFEBE
:104FE00002E0022084F831003C46002CE2D1FFF7B9
:104FF000EBFCC8E700B587B00323002280213748C7
:10500000CDE90323CDE901014FF6FD7300931D2384
:1050100000F5FE7200213248FFF7FCF906AA31A123
:105020001D20FFF767FB07B000BDF8B54FF45071C6
:105030003048FDF70CFE40212548FDF708FE2D4CB9
:1050400004F1340600250FE064202070002084F86D
:105050003100E6603F2084F8200000212120015526
:1050600034343436681C85B20F2DEDDB642020709B
:10507000002084F83100E0603F2084F82000002107
:10508000212001550020114908601B49088010208B
:105090001A49088017481A4908600120FEF781FF65
:1050A000184908600020FEF77CFF0B4908606A463B
:1050B00015A114480068FDF758FD6A4615A1064879
:1050C0000068FDF752FDFFF795FFF8BD6400002072
:1050D000D47B0020340000206C000020D479002014
:1050E000834F000875432F4F532D494920546D724B
:1050F0000000000094760020620000206000002084
:1051000070000020680000204F532D546D724C6FCA
:10511000636B00004F532D546D725369670000009C
:105120002DE9F05F83460C4615469946BBF1000F0A
:1051300052D0584600F0DFFF824609F003000128F4
:105140000ED0022812D1B4F90410B4F90020891A43
:10515000491CA1EB0A0000EBD07102EB610608E0EC
:10516000B4F90400A0EB0A00461C02E0B4F90060A8
:1051700000BF00BF02F0F6F9804609F00C000428D9
:1051800010D0082815D00C2812D1B4F90610B4F9A3
:105190000220891A491CA1EB080000EBD07102EB38
:1051A000610709E0B4F90600A0EB0800471C03E022
:1051B00000BFB4F9027000BF00BF30B2288038B21F
:1051C000688006EB0A00401E00B2A88007EB0800CA
:1051D000401E00B2E88003E02068286060686860D4
:1051E000BDE8F09F10B50246002331B1084601EB3F
:1051F000D17402EB640494FBF1F3184610BD000077
:1052000003488069007D02498969C97D4843704728
:1052100078B9002031B50024009830B100E0641C5A
:10522000684601F057FB0028F9D1204638BD0146F9
:105230000A6812F8013B0BB9012070470A2B00D114
:105240000A600020F9E7B0F90020B1F900309A4275
:1052500001DA0A880280B0F90220B1F902309A42DC
:1052600001DA4A884280B0F90420B1F904309A4248
:1052700001DD8A888280B0F90620B1F906309A42B1
:1052800001DDCA88C280704710B50346B1F900003D
:10529000B2F90040A04202DDB1F9000001E0B2F92C
:1052A000000000B21880B1F90200B2F90240A04239
:1052B00002DDB1F9020001E0B2F9020000B258804B
:1052C000B1F90400B2F90440A04202DDB2F90400D1
:1052D00001E0B1F9040000B29880B1F90600B2F91A
:1052E0000640A04202DDB2F9060001E0B1F9060075
:1052F00000B2D880B3F90400B3F90040A04201DA4B
:10530000002010BDB3F90600B3F90240A04201DA53
:105310000020F6E70120F4E770B503460D4602E0F1
:1053200003F8015B521E12B113F0030FF8D191087C
:10533000A9B102F0030205EB054606EB0624184668
:1053400004E010C010C010C010C0091F0429F8DA12
:1053500001E010C0491E0029FBD1034600BF02E056
:1053600003F8015B521E002AFAD170BD0B8813446A
:105370001BB203808B889B1A1BB283804B8813441B
:105380001BB24380CB889B1A1BB2C38070472DE9A8
:10539000F04104460E460027B4F90000314600F003
:1053A00037F8C8B1304600F043F8401C0FFA80F8D7
:1053B000404602F058F805466DB1284602F062F802
:1053C0008046314640460DF0E8FB204602F0B5F835
:1053D0002580012700BF00BF3846BDE8F0810000EE
:1053E000024602B911A201B910A100BF10780B78D2
:1053F000984201D001207047491C501C0246007899
:105400000028F3D1087808B10120F4E70020F2E782
:1054100070B504460D4600261CB1204602F032F855
:10542000064629463046FFF7DBFF70BD000000004E
:1054300001464FF0FF3029B100BF401C11F8013B7D
:10544000002BFAD17047014609B10A2901D1012088
:1054500070470020FCE72DE9F3470E4600270024A3
:10546000A046A14619E0684601F034FA05462846F0
:10547000FFF7E9FF08B1A04610E0202D02D14D450D
:1054800000D0A046A946284602F0CDF80744B7420E
:1054900000DD0CB9641C00E000E0E4E700BFB8F1F7
:1054A000000F00D1A0464046BDE8FC872DE9F3413E
:1054B0000E46002700240AE0284602F0B4F807440C
:1054C0000CB1B74201DC0A2D00D105E0641C68462E
:1054D00001F000FA0500EFD100BF2046BDE8FC81D5
:1054E00010B5044647F6FF71204602F0DFF810BD04
:1054F0002DE9F04106460F461546012D02D0022D3A
:105500000CD105E039463046FFF7A5FF04460AE016
:1055100039463046FFF7CAFF044604E03046FFF73D
:10552000DFFF044600BF00BF2046BDE8F081F7B5AD
:105530000F4615462A4639460098FFF7D9FF04461C
:105540002146009801F0D8F9009908440090684677
:1055500001F0C0F906460A2E01D1641C09E0012DB4
:1055600007D104E0641C684601F0B4F90646202E19
:10557000F8D02046FEBD2DE9F04104460D46164602
:10558000324629462046FFF7D2FF80464146204654
:1055900001F0B2F907463846BDE8F0812DE9F04147
:1055A00005460C4603F0E0F814B90020BDE8F08190
:1055B000204601F058FF064686B1304601F062FFF2
:1055C00007462DB12246294638460DF0B1FA04E0CF
:1055D000224600213846FFF79FFE00BF03F0BAF8CD
:1055E0003046E3E770B5044603F0BEF8204601F00C
:1055F0003AFF05463DB1284601F044FF06462246E3
:105600000021FFF789FE03F0A5F8284670BD70B5AC
:105610000446B4F90630B4F90420B4F90210B4F920
:10562000000002F0BFFC70BD1CB504463148408C40
:105630003049096C084400B22E4948840846808CE1
:10564000496C084400B22B498884204601F0EBFFE6
:105650002849498CADF800100844401E00B2ADF84E
:10566000040000F03EFD2349898CADF80210084487
:10567000401E00B2ADF80600684609F075FF38B16B
:1056800000BF204601F08EFF09F037FF0028F8D157
:105690000A2C05D0BDF80400401C00B2154948840E
:1056A0001448408C1349096C401A00B211494884CF
:1056B0000846808C496C401A00B20E4988841CBD93
:1056C00010B5044603F050F82046FFF7ADFF03F095
:1056D00041F810BD70B506460C46154603F044F877
:1056E0000448448485843046FFF79EFF03F032F877
:1056F00070BD000078B9002070B505460C4602E088
:105700002846FFF7DDFF601E041EF9DA70BD0000B9
:105710002DE9FC4704460CB9BDE8FC8703F024F8EA
:1057200001F020FF07464B48B0F9228001F054FFFA
:1057300006464848808C801B00B24649888475E044
:1057400047F6FF71204601F0B1FF824651462046E0
:1057500001F0CCFF05463F48808D00F00300012892
:1057600007D0022807D1284605EBD5714FEA610919
:1057700004E0A94602E04FF0000900BF00BF354831
:10578000408CA0EB090000B232494884ADF800001B
:10579000BDF800002844401E00B2ADF804000846E1
:1057A000808CADF80200BDF802003844401E00B203
:1057B000ADF806006A465146204601F0B7FFBDF835
:1057C0000200244988845146204601F095F804449B
:1057D00020780A2802D020780D281DD11D48808D00
:1057E00000F00300012802D0022805D100BF0FFA03
:1057F00088F01849488404E01648008C154948840C
:1058000000BF00BF20780A280CD11248808C384491
:1058100000B21049888405E0BDF80000284400B2B9
:105820000C494884207800B903E0641C20780028E3
:1058300086D100BF0748808C304400B20549888477
:105840000846B0F92C0020F00300888502F082FFA2
:1058500000BF61E778B9002070B506460C461546D2
:1058600002F082FF20B20549488428B2888430467D
:10587000FFF74EFF02F06EFF70BD000078B9002008
:105880002DE9FF4F87B00F46154698464FF00009A7
:10589000079802900020019000F023FC824627B177
:1058A000386805907868069002E005A800F0E2FBF1
:1058B00015F00C0F02D1BDF916903AE044464FF0B6
:1058C000010B13E02146079801F0F0FE0646A41BE9
:1058D0003146079801F010F807990844079007A887
:1058E000FFF7A5FC00B103E00BF1010B002CE9D19F
:1058F00000BF05F00C00042805D0082802D00C28B1
:1059000015D107E000BFBDF91A000BFB1A0000F12A
:1059100001090CE0BDF91A10BDF91620891A491CBD
:105920000BFB1A1000EBD07102EB610900BF00BF46
:1059300000BF44460298079057E02146079801F0BF
:10594000B5FE0646A41B3146079801F0CFFE8346FC
:1059500015F0030010D0012812D0022817D1BDF98C
:105960001810BDF91420891AA1EB0B0000EBD071BF
:1059700002EB610101910AE0BDF91400019006E01B
:10598000BDF91800A0EB0B00401C019000BF00BF48
:10599000019800B231494884ADF80C00BDF80C0004
:1059A0005844401E00B2ADF810000FFA89F0888408
:1059B000ADF80E0009EB0A00401E00B2ADF812006F
:1059C00003AA3146079801F0B1FE3146079800F06E
:1059D00093FF07990844079001F0C4FD814407A88C
:1059E000FFF725FC00B102E000BF002CA5D100BFED
:1059F0000BB0BDE8F08F2DE9FC4106460C4617467A
:105A00009846E6B1002502F0AFFE64B120460BF0E7
:105A100023F905463DB12A4621466846FFF734FC86
:105A200068460BF019F943463A4621463046FFF7DF
:105A300027FF28460BF010F902F08CFE00BFBDE8EE
:105A4000FC8170B504460D46164647F6FF73324694
:105A500029462046FFF7CFFF70BD000078B900202F
:105A600070B50446B4F900500AE0B4F902102846B3
:105A700002F01EFFB4F90610284602F019FFAD1C13
:105A8000B4F90400A842F0DAB4F902500AE0B4F91B
:105A90000000294602F00CFFB4F90400294602F088
:105AA00007FFAD1CB4F90600A842F0DA70BD7CB562
:105AB00004460D462A4621466846FFF757FC02F089
:105AC00053FEBDF800001649096C084400B2ADF859
:105AD0000000BDF802001249496C084400B2ADF85C
